Tapped a light on app

19:44:11.889843 IP 192.168.1.10.56700 > 255.255.255.255.56700: UDP, length 36
        0x0000:  ffff ffff ffff 10f1 f246 88cd 0800 4500  .........F....E.
        0x0010:  0040 d280 4000 4011 a67a c0a8 010a ffff  .@..@.@..z......
        0x0020:  ffff dd7c dd7c 002c 1c2e 2400 0034 b781  ...|.|.,..$..4..
        0x0030:  8906 0000 0000 0000 0000 0000 0000 0000  ................
        0x0040:  0000 0000 0000 0000 0000 0200 0000       ..............
19:44:11.900803 IP 192.168.1.10.40153 > 255.255.255.255.56700: UDP, length 36
        0x0000:  ffff ffff ffff 10f1 f246 88cd 0800 4500  .........F....E.
        0x0010:  0040 d284 4000 4011 a676 c0a8 010a ffff  .@..@.@..v......
        0x0020:  ffff 9cd9 dd7c 002c 5cd1 2400 0034 b781  .....|.,\.$..4..
        0x0030:  8906 0000 0000 0000 0000 0000 0000 0000  ................
        0x0040:  0000 0000 0000 0000 0000 0200 0000       ..............
19:44:11.922882 IP 192.168.1.10.40153 > 255.255.255.255.56700: UDP, length 36
        0x0000:  ffff ffff ffff 10f1 f246 88cd 0800 4500  .........F....E.
        0x0010:  0040 d287 4000 4011 a673 c0a8 010a ffff  .@..@.@..s......
        0x0020:  ffff 9cd9 dd7c 002c 5cd1 2400 0034 b781  .....|.,\.$..4..
        0x0030:  8906 0000 0000 0000 0000 0000 0000 0000  ................
        0x0040:  0000 0000 0000 0000 0000 0200 0000       ..............
19:44:13.894936 IP 192.168.1.10.40153 > 255.255.255.255.56700: UDP, length 36
        0x0000:  ffff ffff ffff 10f1 f246 88cd 0800 4500  .........F....E.
        0x0010:  0040 d364 4000 4011 a596 c0a8 010a ffff  .@.d@.@.........
        0x0020:  ffff 9cd9 dd7c 002c 5cd1 2400 0034 b781  .....|.,\.$..4..
        0x0030:  8906 0000 0000 0000 0000 0000 0000 0000  ................
        0x0040:  0000 0000 0000 0000 0000 0200 0000       ..............
19:44:17.025713 IP 192.168.1.10.40153 > 255.255.255.255.56700: UDP, length 36
        0x0000:  ffff ffff ffff 10f1 f246 88cd 0800 4500  .........F....E.
        0x0010:  0040 d409 4000 4011 a4f1 c0a8 010a ffff  .@..@.@.........
        0x0020:  ffff 9cd9 dd7c 002c 5cd1 2400 0034 b781  .....|.,\.$..4..
        0x0030:  8906 0000 0000 0000 0000 0000 0000 0000  ................
        0x0040:  0000 0000 0000 0000 0000 0200 0000       ..............
19:44:20.927517 IP 192.168.1.10.40153 > 255.255.255.255.56700: UDP, length 36
        0x0000:  ffff ffff ffff 10f1 f246 88cd 0800 4500  .........F....E.
        0x0010:  0040 d845 4000 4011 a0b5 c0a8 010a ffff  .@.E@.@.........
        0x0020:  ffff 9cd9 dd7c 002c 5cd1 2400 0034 b781  .....|.,\.$..4..
        0x0030:  8906 0000 0000 0000 0000 0000 0000 0000  ................
        0x0040:  0000 0000 0000 0000 0000 0200 0000       ..............
19:44:25.954684 IP 192.168.1.10.40153 > 255.255.255.255.56700: UDP, length 36
        0x0000:  ffff ffff ffff 10f1 f246 88cd 0800 4500  .........F....E.
        0x0010:  0040 de22 4000 4011 9ad8 c0a8 010a ffff  .@."@.@.........
        0x0020:  ffff 9cd9 dd7c 002c 5cd1 2400 0034 b781  .....|.,\.$..4..
        0x0030:  8906 0000 0000 0000 0000 0000 0000 0000  ................
        0x0040:  0000 0000 0000 0000 0000 0200 0000       ..............
        
Went back with one X

20:16:44.012937 IP 192.168.1.10.46162 > 255.255.255.255.56700: UDP, length 36
        0x0000:  4500 0040 bd36 4000 4011 bbc4 c0a8 010a  E..@.6@.@.......
        0x0010:  ffff ffff b452 dd7c 002c 4558 2400 0034  .....R.|.,EX$..4
        0x0020:  b781 8906 0000 0000 0000 0000 0000 0000  ................
        0x0030:  0000 0000 0000 0000 0000 0000 0200 0000  ................
20:16:44.012947 IP 192.168.1.10.56700 > 255.255.255.255.56700: UDP, length 36
        0x0000:  4500 0040 bd35 4000 4011 bbc5 c0a8 010a  E..@.5@.@.......
        0x0010:  ffff ffff dd7c dd7c 002c 1c2e 2400 0034  .....|.|.,..$..4
        0x0020:  b781 8906 0000 0000 0000 0000 0000 0000  ................
        0x0030:  0000 0000 0000 0000 0000 0000 0200 0000  ................
20:16:46.003961 IP 192.168.1.10.46162 > 255.255.255.255.56700: UDP, length 36
        0x0000:  4500 0040 bd91 4000 4011 bb69 c0a8 010a  E..@..@.@..i....
        0x0010:  ffff ffff b452 dd7c 002c 4558 2400 0034  .....R.|.,EX$..4
        0x0020:  b781 8906 0000 0000 0000 0000 0000 0000  ................
        0x0030:  0000 0000 0000 0000 0000 0000 0200 0000  ................
20:16:49.031856 IP 192.168.1.10.46162 > 255.255.255.255.56700: UDP, length 36
        0x0000:  4500 0040 bfae 4000 4011 b94c c0a8 010a  E..@..@.@..L....
        0x0010:  ffff ffff b452 dd7c 002c 4558 2400 0034  .....R.|.,EX$..4
        0x0020:  b781 8906 0000 0000 0000 0000 0000 0000  ................
        0x0030:  0000 0000 0000 0000 0000 0000 0200 0000  ................
20:16:53.052689 IP 192.168.1.10.46162 > 255.255.255.255.56700: UDP, length 36
        0x0000:  4500 0040 c28b 4000 4011 b66f c0a8 010a  E..@..@.@..o....
        0x0010:  ffff ffff b452 dd7c 002c 4558 2400 0034  .....R.|.,EX$..4
        0x0020:  b781 8906 0000 0000 0000 0000 0000 0000  ................
        0x0030:  0000 0000 0000 0000 0000 0000 0200 0000  ................
20:16:58.107911 IP 192.168.1.10.46162 > 255.255.255.255.56700: UDP, length 36
        0x0000:  4500 0040 c675 4000 4011 b285 c0a8 010a  E..@.u@.@.......
        0x0010:  ffff ffff b452 dd7c 002c 4558 2400 0034  .....R.|.,EX$..4
        0x0020:  b781 8906 0000 0000 0000 0000 0000 0000  ................
        0x0030:  0000 0000 0000 0000 0000 0000 0200 0000  ................


Sent from app

23:48:18.400412 IP asgard.local.56701 > 255.255.255.255.56700: UDP, length 36
        0x0000:  ffff ffff ffff bcee 7b87 79d9 0800 4500  ........{.y...E.
        0x0010:  0040 619a 4000 4011 16e2 c0a8 0189 ffff  .@a.@.@.........
        0x0020:  ffff dd7d dd7c 002c 8931 2400 0034 0000  ...}.|.,.1$..4..
        0x0030:  0000 d204 0000 0000 0000 0000 0000 0000  ................
        0x0040:  0100 0000 0000 0000 0000 0200 0000       ..............

sent from app 1x

20:19:55.243753 IP asgard.local.56701 > 255.255.255.255.56700: UDP, length 36
        0x0000:  4500 0040 619b 4000 4011 16e1 c0a8 0189  E..@a.@.@.......
        0x0010:  ffff ffff dd7d dd7c 002c 8931 2400 0034  .....}.|.,.1$..4
        0x0020:  0000 0000 d204 0000 0000 0000 0000 0000  ................
        0x0030:  0000 0100 0000 0000 0000 0000 0200 0000  ................


Packet from app (part we care about)
2400 0034 b781 8906 0000 0000 0000 0000 0000 0000 0000 0000 0000 0000 0000 0000 0200 0000
My packet
2400 0034 0000 0000 0000 0000 0000 0000 0000 0000 0000 0000 0000 0000 0000 0000 0200 0000



Crap Packet
2400 0034 d204 0000 0000 0000 0000 0000 0000 0000 0000 0000 0000 0200 0000 0000 0000 0000
Expectation
2400 0034 d204 0000 0000 0000 0000 0000 0000 0000 0000 0000 0000 0000 0000 0000 0200 0000




























Click on gear
"Header: Header {hFrame = Frame {fSize = 49, fOrigin = 0, fTagged = SingleTagged, fAddressable = HasFrameAddress, fProtocol = 1024, fSource = UniqueSource {unUniqueSource = 235557364}}, hFrameAddress = FrameAddress {faTarget = Mac {unMac = (208,115,143,134,191,175)}( d0:73:8f:86:bf:af ), faReserved = UnusedMac (Mac {unMac = ((),(),(),(),(),())}), faReserved2 = (), faAckRequired = NoAckRequired, faResRequired = NoResRequired, faSequence = Sequence {unSequence = 225}}, hProtocolHeader = ProtocolHeader {phReserved = 0, phType = Request (LightMessageType SetColorMessage), phReserved2 = ()}} Rest: \"\\NUL\\NUL\\NUL\\NUL\\NUL\\255\\255\\140\\n\\NUL\\NUL\\NUL\\NUL\""
"Header: Header {hFrame = Frame {fSize = 61, fOrigin = 0, fTagged = SingleTagged, fAddressable = HasFrameAddress, fProtocol = 1024, fSource = UniqueSource {unUniqueSource = 235557364}}, hFrameAddress = FrameAddress {faTarget = Mac {unMac = (208,115,143,134,191,175)}( d0:73:8f:86:bf:af ), faReserved = UnusedMac (Mac {unMac = ((),(),(),(),(),())}), faReserved2 = (), faAckRequired = NoAckRequired, faResRequired = NoResRequired, faSequence = Sequence {unSequence = 224}}, hProtocolHeader = ProtocolHeader {phReserved = 0, phType = Request (LightMessageType SetWaveformOptionalMessage), phReserved2 = ()}} Rest: \"\\NUL\\NUL\\NUL\\NUL\\NUL\\NUL33\\140\\n\\160\\SI\\NUL\\NUL\\NUL\\NUL\\160A\\NUL\\NUL\\SOH\\NUL\\NUL\\SOH\\NUL\""



Edit name -> OK
"Header: Header {hFrame = Frame {fSize = 68, fOrigin = 0, fTagged = SingleTagged, fAddressable = HasFrameAddress, fProtocol = 1024, fSource = UniqueSource {unUniqueSource = 235557364}}, hFrameAddress = FrameAddress {faTarget = Mac {unMac = (208,115,143,134,191,175)}( d0:73:8f:86:bf:af ), faReserved = UnusedMac (Mac {unMac = ((),(),(),(),(),())}), faReserved2 = (), faAckRequired = NoAckRequired, faResRequired = ResRequired, faSequence = Sequence {unSequence = 12}}, hProtocolHeader = ProtocolHeader {phReserved = 0, phType = Request (DeviceMessageType SetLabelMessage), phReserved2 = ()}} Rest: \"Fake Light\\NUL\\NUL\\NUL\\NUL\\NUL\\NUL\\NUL\\NUL\\NUL\\NUL\\NUL\\NUL\\NUL\\NUL\\NUL\\NUL\\NUL\\NUL\\NUL\\NUL\\NUL\\NUL\""
"Header: Header {hFrame = Frame {fSize = 38, fOrigin = 0, fTagged = SingleTagged, fAddressable = HasFrameAddress, fProtocol = 1024, fSource = UniqueSource {unUniqueSource = 235557364}}, hFrameAddress = FrameAddress {faTarget = Mac {unMac = (208,115,143,134,191,175)}( d0:73:8f:86:bf:af ), faReserved = UnusedMac (Mac {unMac = ((),(),(),(),(),())}), faReserved2 = (), faAckRequired = NoAckRequired, faResRequired = NoResRequired, faSequence = Sequence {unSequence = 13}}, hProtocolHeader = ProtocolHeader {phReserved = 0, phType = Request (LightMessageType SetInfraredMessage), phReserved2 = ()}} Rest: \"\\255\\255\""
"Header: Header {hFrame = Frame {fSize = 68, fOrigin = 0, fTagged = SingleTagged, fAddressable = HasFrameAddress, fProtocol = 1024, fSource = UniqueSource {unUniqueSource = 235557364}}, hFrameAddress = FrameAddress {faTarget = Mac {unMac = (208,115,143,134,191,175)}( d0:73:8f:86:bf:af ), faReserved = UnusedMac (Mac {unMac = ((),(),(),(),(),())}), faReserved2 = (), faAckRequired = NoAckRequired, faResRequired = ResRequired, faSequence = Sequence {unSequence = 12}}, hProtocolHeader = ProtocolHeader {phReserved = 0, phType = Request (DeviceMessageType SetLabelMessage), phReserved2 = ()}} Rest: \"Fake Light\\NUL\\NUL\\NUL\\NUL\\NUL\\NUL\\NUL\\NUL\\NUL\\NUL\\NUL\\NUL\\NUL\\NUL\\NUL\\NUL\\NUL\\NUL\\NUL\\NUL\\NUL\\NUL\""
"Header: Header {hFrame = Frame {fSize = 68, fOrigin = 0, fTagged = SingleTagged, fAddressable = HasFrameAddress, fProtocol = 1024, fSource = UniqueSource {unUniqueSource = 235557364}}, hFrameAddress = FrameAddress {faTarget = Mac {unMac = (208,115,143,134,191,175)}( d0:73:8f:86:bf:af ), faReserved = UnusedMac (Mac {unMac = ((),(),(),(),(),())}), faReserved2 = (), faAckRequired = NoAckRequired, faResRequired = ResRequired, faSequence = Sequence {unSequence = 12}}, hProtocolHeader = ProtocolHeader {phReserved = 0, phType = Request (DeviceMessageType SetLabelMessage), phReserved2 = ()}} Rest: \"Fake Light\\NUL\\NUL\\NUL\\NUL\\NUL\\NUL\\NUL\\NUL\\NUL\\NUL\\NUL\\NUL\\NUL\\NUL\\NUL\\NUL\\NUL\\NUL\\NUL\\NUL\\NUL\\NUL\""
"Header: Header {hFrame = Frame {fSize = 68, fOrigin = 0, fTagged = SingleTagged, fAddressable = HasFrameAddress, fProtocol = 1024, fSource = UniqueSource {unUniqueSource = 235557364}}, hFrameAddress = FrameAddress {faTarget = Mac {unMac = (208,115,143,134,191,175)}( d0:73:8f:86:bf:af ), faReserved = UnusedMac (Mac {unMac = ((),(),(),(),(),())}), faReserved2 = (), faAckRequired = NoAckRequired, faResRequired = ResRequired, faSequence = Sequence {unSequence = 12}}, hProtocolHeader = ProtocolHeader {phReserved = 0, phType = Request (DeviceMessageType SetLabelMessage), phReserved2 = ()}} Rest: \"Fake Light\\NUL\\NUL\\NUL\\NUL\\NUL\\NUL\\NUL\\NUL\\NUL\\NUL\\NUL\\NUL\\NUL\\NUL\\NUL\\NUL\\NUL\\NUL\\NUL\\NUL\\NUL\\NUL\""










*Main Lib> :set -fbreak-on-exception
*Main Lib> :trace main

Stopped in <exception thrown>, <unknown>
_exception :: e = _
[<unknown>] [<unknown>] *Main Lib> :list
Unable to list source for <unknown>
Try :back then :list
[<unknown>] [<unknown>] *Main Lib> :back
Logged breakpoint at /home/leo/dev/local/lifx-exp/src/Lib.hs:479:5-17
_result :: ResRequired
faResRequired :: ResRequired
[-1: /home/leo/dev/local/lifx-exp/src/Lib.hs:479:5-17] [-1: /home/leo/dev/local/lifx-exp/src/Lib.hs:479:5-17] *Main Lib> :list
478    , faAckRequired :: !AckRequired
479    , faResRequired :: !ResRequired
480    , faSequence :: !Sequence
[-1: /home/leo/dev/local/lifx-exp/src/Lib.hs:479:5-17] [-1: /home/leo/dev/local/lifx-exp/src/Lib.hs:479:5-17] *Main Lib> :
:?           :back        :browse!     :cmd         :ctags!      :delete      :force       :history     :issafe      :list        :main        :quit        :run         :seti        :sprint      :stepmodule  :undef
:abandon     :break       :cd          :continue    :def         :edit        :forward     :info        :kind        :load        :module      :reload      :script      :show        :step        :trace       :unset
:add         :browse      :check       :ctags       :def!        :etags       :help        :info!       :kind!       :load!       :print       :reload!     :set         :showi       :steplocal   :type        :where
[-1: /home/leo/dev/local/lifx-exp/src/Lib.hs:479:5-17] [-1: /home/leo/dev/local/lifx-exp/src/Lib.hs:479:5-17] *Main Lib> :list
478    , faAckRequired :: !AckRequired
479    , faResRequired :: !ResRequired
480    , faSequence :: !Sequence
[-1: /home/leo/dev/local/lifx-exp/src/Lib.hs:479:5-17] [-1: /home/leo/dev/local/lifx-exp/src/Lib.hs:479:5-17] *Main Lib> :hist
-1  : faResRequired (/home/leo/dev/local/lifx-exp/src/Lib.hs:479:5-17)
-2  : hFrameAddress (/home/leo/dev/local/lifx-exp/src/Lib.hs:2442:5-17)
-3  : lightReceiveThread (/home/leo/dev/local/lifx-exp/light/Main.hs:291:18-58)
-4  : lightReceiveThread (/home/leo/dev/local/lifx-exp/light/Main.hs:369:5-13)
-5  : lightReceiveThread (/home/leo/dev/local/lifx-exp/light/Main.hs:(369,5)-(387,25))
-6  : lightReceiveThread (/home/leo/dev/local/lifx-exp/light/Main.hs:367:3-15)
-7  : lightReceiveThread (/home/leo/dev/local/lifx-exp/light/Main.hs:(367,3)-(387,25))
-8  : fbWifiInfo (/home/leo/dev/local/lifx-exp/light/Main.hs:394:5-14)
-9  : lightReceiveThread:fbw (/home/leo/dev/local/lifx-exp/light/Main.hs:358:15-27)
-10 : lightReceiveThread:fbw' (/home/leo/dev/local/lifx-exp/light/Main.hs:360:16-39)
-11 : lightReceiveThread (/home/leo/dev/local/lifx-exp/light/Main.hs:362:9-32)
-12 : lightReceiveThread (/home/leo/dev/local/lifx-exp/light/Main.hs:(354,16)-(363,5))
-13 : lightReceiveThread (/home/leo/dev/local/lifx-exp/light/Main.hs:(354,3)-(363,5))
-14 : lightReceiveThread (/home/leo/dev/local/lifx-exp/light/Main.hs:353:3-25)
-15 : lightReceiveThread (/home/leo/dev/local/lifx-exp/light/Main.hs:291:11-58)
-16 : def (/home/leo/dev/local/lifx-exp/light/Main.hs:513:18-25)
-17 : def (/home/leo/dev/local/lifx-exp/light/Main.hs:512:18-29)
-18 : lightReceiveThread:packet (/home/leo/dev/local/lifx-exp/light/Main.hs:287:16-56)
-19 : lightReceiveThread:packet (/home/leo/dev/local/lifx-exp/light/Main.hs:286:24-53)
-20 : lightReceiveThread:packet (/home/leo/dev/local/lifx-exp/light/Main.hs:286:16-53)
...
[-1: /home/leo/dev/local/lifx-exp/src/Lib.hs:479:5-17] [-1: /home/leo/dev/local/lifx-exp/src/Lib.hs:479:5-17] *Main Lib>


